{
	"contracts/1_Storage.sol": {
		"Money": {
			"abi": [
				{
					"anonymous": false,
					"inputs": [
						{
							"indexed": false,
							"internalType": "address",
							"name": "_user",
							"type": "address"
						},
						{
							"indexed": false,
							"internalType": "uint256",
							"name": "_amount",
							"type": "uint256"
						}
					],
					"name": "addBalance",
					"type": "event"
				},
				{
					"anonymous": false,
					"inputs": [
						{
							"indexed": false,
							"internalType": "address",
							"name": "_to",
							"type": "address"
						},
						{
							"indexed": false,
							"internalType": "uint256",
							"name": "_amount",
							"type": "uint256"
						}
					],
					"name": "op",
					"type": "event"
				},
				{
					"anonymous": false,
					"inputs": [
						{
							"indexed": false,
							"internalType": "address",
							"name": "_from",
							"type": "address"
						},
						{
							"indexed": false,
							"internalType": "uint256",
							"name": "_amount",
							"type": "uint256"
						}
					],
					"name": "proverka",
					"type": "event"
				},
				{
					"inputs": [],
					"name": "Nachislenie_Money",
					"outputs": [],
					"stateMutability": "payable",
					"type": "function"
				},
				{
					"inputs": [
						{
							"internalType": "uint256",
							"name": "_amount",
							"type": "uint256"
						}
					],
					"name": "Otpravit",
					"outputs": [],
					"stateMutability": "nonpayable",
					"type": "function"
				},
				{
					"inputs": [
						{
							"internalType": "uint256",
							"name": "",
							"type": "uint256"
						}
					],
					"name": "chels",
					"outputs": [
						{
							"internalType": "address",
							"name": "userAddress",
							"type": "address"
						},
						{
							"internalType": "uint256",
							"name": "balance",
							"type": "uint256"
						}
					],
					"stateMutability": "view",
					"type": "function"
				},
				{
					"inputs": [
						{
							"internalType": "address",
							"name": "user",
							"type": "address"
						}
					],
					"name": "getBalance",
					"outputs": [
						{
							"internalType": "uint256",
							"name": "",
							"type": "uint256"
						}
					],
					"stateMutability": "view",
					"type": "function"
				}
			],
			"devdoc": {
				"kind": "dev",
				"methods": {},
				"version": 1
			},
			"evm": {
				"assembly": "    /* \"contracts/1_Storage.sol\":69:893  contract Money {... */\n  mstore(0x40, 0x80)\n  callvalue\n  dup1\n  iszero\n  tag_1\n  jumpi\n  0x00\n  dup1\n  revert\ntag_1:\n  pop\n  dataSize(sub_0)\n  dup1\n  dataOffset(sub_0)\n  0x00\n  codecopy\n  0x00\n  return\nstop\n\nsub_0: assembly {\n        /* \"contracts/1_Storage.sol\":69:893  contract Money {... */\n      mstore(0x40, 0x80)\n      jumpi(tag_1, lt(calldatasize, 0x04))\n      shr(0xe0, calldataload(0x00))\n      dup1\n      0x055c26d0\n      eq\n      tag_2\n      jumpi\n      dup1\n      0x824df90f\n      eq\n      tag_3\n      jumpi\n      dup1\n      0x8d005b57\n      eq\n      tag_4\n      jumpi\n      dup1\n      0xf8b2cb4f\n      eq\n      tag_5\n      jumpi\n    tag_1:\n      0x00\n      dup1\n      revert\n        /* \"contracts/1_Storage.sol\":308:454  function Nachislenie_Money() external payable{... */\n    tag_2:\n      tag_6\n      tag_7\n      jump\t// in\n    tag_6:\n      stop\n        /* \"contracts/1_Storage.sol\":623:891  function Otpravit(uint256 _amount) public {... */\n    tag_3:\n      callvalue\n      dup1\n      iszero\n      tag_8\n      jumpi\n      0x00\n      dup1\n      revert\n    tag_8:\n      pop\n      tag_9\n      0x04\n      dup1\n      calldatasize\n      sub\n      dup2\n      add\n      swap1\n      tag_10\n      swap2\n      swap1\n      tag_11\n      jump\t// in\n    tag_10:\n      tag_12\n      jump\t// in\n    tag_9:\n      stop\n        /* \"contracts/1_Storage.sol\":172:194  Chelik [] public chels */\n    tag_4:\n      callvalue\n      dup1\n      iszero\n      tag_13\n      jumpi\n      0x00\n      dup1\n      revert\n    tag_13:\n      pop\n      tag_14\n      0x04\n      dup1\n      calldatasize\n      sub\n      dup2\n      add\n      swap1\n      tag_15\n      swap2\n      swap1\n      tag_11\n      jump\t// in\n    tag_15:\n      tag_16\n      jump\t// in\n    tag_14:\n      mload(0x40)\n      tag_17\n      swap3\n      swap2\n      swap1\n      tag_18\n      jump\t// in\n    tag_17:\n      mload(0x40)\n      dup1\n      swap2\n      sub\n      swap1\n      return\n        /* \"contracts/1_Storage.sol\":460:568  function getBalance(address user) public view returns (uint256){... */\n    tag_5:\n      callvalue\n      dup1\n      iszero\n      tag_19\n      jumpi\n      0x00\n      dup1\n      revert\n    tag_19:\n      pop\n      tag_20\n      0x04\n      dup1\n      calldatasize\n      sub\n      dup2\n      add\n      swap1\n      tag_21\n      swap2\n      swap1\n      tag_22\n      jump\t// in\n    tag_21:\n      tag_23\n      jump\t// in\n    tag_20:\n      mload(0x40)\n      tag_24\n      swap2\n      swap1\n      tag_25\n      jump\t// in\n    tag_24:\n      mload(0x40)\n      dup1\n      swap2\n      sub\n      swap1\n      return\n        /* \"contracts/1_Storage.sol\":308:454  function Nachislenie_Money() external payable{... */\n    tag_7:\n        /* \"contracts/1_Storage.sol\":368:401  addBalance(msg.sender, msg.value) */\n      0x21e5383a73a9e74de80357f79bd150f1c55b6c3f0af7e4332810a74c7ba1a5ae\n        /* \"contracts/1_Storage.sol\":379:389  msg.sender */\n      caller\n        /* \"contracts/1_Storage.sol\":391:400  msg.value */\n      callvalue\n        /* \"contracts/1_Storage.sol\":368:401  addBalance(msg.sender, msg.value) */\n      mload(0x40)\n      tag_27\n      swap3\n      swap2\n      swap1\n      tag_18\n      jump\t// in\n    tag_27:\n      mload(0x40)\n      dup1\n      swap2\n      sub\n      swap1\n      log1\n        /* \"contracts/1_Storage.sol\":416:447  proverka(msg.sender, msg.value) */\n      0xff3760390ab4b56f150db141740c4e201d0e412576dc7f1fa709a21e5483da61\n        /* \"contracts/1_Storage.sol\":425:435  msg.sender */\n      caller\n        /* \"contracts/1_Storage.sol\":437:446  msg.value */\n      callvalue\n        /* \"contracts/1_Storage.sol\":416:447  proverka(msg.sender, msg.value) */\n      mload(0x40)\n      tag_28\n      swap3\n      swap2\n      swap1\n      tag_18\n      jump\t// in\n    tag_28:\n      mload(0x40)\n      dup1\n      swap2\n      sub\n      swap1\n      log1\n        /* \"contracts/1_Storage.sol\":308:454  function Nachislenie_Money() external payable{... */\n      jump\t// out\n        /* \"contracts/1_Storage.sol\":623:891  function Otpravit(uint256 _amount) public {... */\n    tag_12:\n        /* \"contracts/1_Storage.sol\":694:715  address(this).balance */\n      selfbalance\n        /* \"contracts/1_Storage.sol\":683:690  _amount */\n      dup2\n        /* \"contracts/1_Storage.sol\":683:715  _amount <= address(this).balance */\n      gt\n      iszero\n        /* \"contracts/1_Storage.sol\":675:738  require(_amount <= address(this).balance, \"Nedostatok sredstv\") */\n      tag_30\n      jumpi\n      mload(0x40)\n      0x08c379a000000000000000000000000000000000000000000000000000000000\n      dup2\n      mstore\n      0x04\n      add\n      tag_31\n      swap1\n      tag_32\n      jump\t// in\n    tag_31:\n      mload(0x40)\n      dup1\n      swap2\n      sub\n      swap1\n      revert\n    tag_30:\n        /* \"contracts/1_Storage.sol\":766:767  0 */\n      0x00\n        /* \"contracts/1_Storage.sol\":756:763  _amount */\n      dup2\n        /* \"contracts/1_Storage.sol\":756:767  _amount > 0 */\n      gt\n        /* \"contracts/1_Storage.sol\":748:798  require(_amount > 0, \"Vvedite znachenie bolshe 0\") */\n      tag_33\n      jumpi\n      mload(0x40)\n      0x08c379a000000000000000000000000000000000000000000000000000000000\n      dup2\n      mstore\n      0x04\n      add\n      tag_34\n      swap1\n      tag_35\n      jump\t// in\n    tag_34:\n      mload(0x40)\n      dup1\n      swap2\n      sub\n      swap1\n      revert\n    tag_33:\n        /* \"contracts/1_Storage.sol\":817:827  msg.sender */\n      caller\n        /* \"contracts/1_Storage.sol\":808:837  payable (msg.sender).transfer */\n      0xffffffffffffffffffffffffffffffffffffffff\n      and\n        /* \"contracts/1_Storage.sol\":808:846  payable (msg.sender).transfer(_amount) */\n      0x08fc\n        /* \"contracts/1_Storage.sol\":838:845  _amount */\n      dup3\n        /* \"contracts/1_Storage.sol\":808:846  payable (msg.sender).transfer(_amount) */\n      swap1\n      dup2\n      iszero\n      mul\n      swap1\n      mload(0x40)\n      0x00\n      mload(0x40)\n      dup1\n      dup4\n      sub\n      dup2\n      dup6\n      dup9\n      dup9\n      call\n      swap4\n      pop\n      pop\n      pop\n      pop\n      iszero\n      dup1\n      iszero\n      tag_37\n      jumpi\n      returndatasize\n      0x00\n      dup1\n      returndatacopy\n      revert(0x00, returndatasize)\n    tag_37:\n      pop\n        /* \"contracts/1_Storage.sol\":861:884  op(msg.sender, _amount) */\n      0xccf14a3c8c8227692a09601a5aa3c39cc7b11053a5a7628cd6519e2d320bdf68\n        /* \"contracts/1_Storage.sol\":864:874  msg.sender */\n      caller\n        /* \"contracts/1_Storage.sol\":876:883  _amount */\n      dup3\n        /* \"contracts/1_Storage.sol\":861:884  op(msg.sender, _amount) */\n      mload(0x40)\n      tag_38\n      swap3\n      swap2\n      swap1\n      tag_18\n      jump\t// in\n    tag_38:\n      mload(0x40)\n      dup1\n      swap2\n      sub\n      swap1\n      log1\n        /* \"contracts/1_Storage.sol\":623:891  function Otpravit(uint256 _amount) public {... */\n      pop\n      jump\t// out\n        /* \"contracts/1_Storage.sol\":172:194  Chelik [] public chels */\n    tag_16:\n      0x00\n      dup2\n      dup2\n      sload\n      dup2\n      lt\n      tag_39\n      jumpi\n      0x00\n      dup1\n      revert\n    tag_39:\n      swap1\n      0x00\n      mstore\n      keccak256(0x00, 0x20)\n      swap1\n      0x02\n      mul\n      add\n      0x00\n      swap2\n      pop\n      swap1\n      pop\n      dup1\n      0x00\n      add\n      0x00\n      swap1\n      sload\n      swap1\n      0x0100\n      exp\n      swap1\n      div\n      0xffffffffffffffffffffffffffffffffffffffff\n      and\n      swap1\n      dup1\n      0x01\n      add\n      sload\n      swap1\n      pop\n      dup3\n      jump\t// out\n        /* \"contracts/1_Storage.sol\":460:568  function getBalance(address user) public view returns (uint256){... */\n    tag_23:\n        /* \"contracts/1_Storage.sol\":515:522  uint256 */\n      0x00\n        /* \"contracts/1_Storage.sol\":548:552  user */\n      dup2\n        /* \"contracts/1_Storage.sol\":540:561  address(user).balance */\n      0xffffffffffffffffffffffffffffffffffffffff\n      and\n      balance\n        /* \"contracts/1_Storage.sol\":533:561  return address(user).balance */\n      swap1\n      pop\n        /* \"contracts/1_Storage.sol\":460:568  function getBalance(address user) public view returns (uint256){... */\n      swap2\n      swap1\n      pop\n      jump\t// out\n        /* \"#utility.yul\":88:205   */\n    tag_43:\n        /* \"#utility.yul\":197:198   */\n      0x00\n        /* \"#utility.yul\":194:195   */\n      dup1\n        /* \"#utility.yul\":187:199   */\n      revert\n        /* \"#utility.yul\":334:411   */\n    tag_45:\n        /* \"#utility.yul\":371:378   */\n      0x00\n        /* \"#utility.yul\":400:405   */\n      dup2\n        /* \"#utility.yul\":389:405   */\n      swap1\n      pop\n        /* \"#utility.yul\":334:411   */\n      swap2\n      swap1\n      pop\n      jump\t// out\n        /* \"#utility.yul\":417:539   */\n    tag_46:\n        /* \"#utility.yul\":490:514   */\n      tag_65\n        /* \"#utility.yul\":508:513   */\n      dup2\n        /* \"#utility.yul\":490:514   */\n      tag_45\n      jump\t// in\n    tag_65:\n        /* \"#utility.yul\":483:488   */\n      dup2\n        /* \"#utility.yul\":480:515   */\n      eq\n        /* \"#utility.yul\":470:533   */\n      tag_66\n      jumpi\n        /* \"#utility.yul\":529:530   */\n      0x00\n        /* \"#utility.yul\":526:527   */\n      dup1\n        /* \"#utility.yul\":519:531   */\n      revert\n        /* \"#utility.yul\":470:533   */\n    tag_66:\n        /* \"#utility.yul\":417:539   */\n      pop\n      jump\t// out\n        /* \"#utility.yul\":545:684   */\n    tag_47:\n        /* \"#utility.yul\":591:596   */\n      0x00\n        /* \"#utility.yul\":629:635   */\n      dup2\n        /* \"#utility.yul\":616:636   */\n      calldataload\n        /* \"#utility.yul\":607:636   */\n      swap1\n      pop\n        /* \"#utility.yul\":645:678   */\n      tag_68\n        /* \"#utility.yul\":672:677   */\n      dup2\n        /* \"#utility.yul\":645:678   */\n      tag_46\n      jump\t// in\n    tag_68:\n        /* \"#utility.yul\":545:684   */\n      swap3\n      swap2\n      pop\n      pop\n      jump\t// out\n        /* \"#utility.yul\":690:1019   */\n    tag_11:\n        /* \"#utility.yul\":749:755   */\n      0x00\n        /* \"#utility.yul\":798:800   */\n      0x20\n        /* \"#utility.yul\":786:795   */\n      dup3\n        /* \"#utility.yul\":777:784   */\n      dup5\n        /* \"#utility.yul\":773:796   */\n      sub\n        /* \"#utility.yul\":769:801   */\n      slt\n        /* \"#utility.yul\":766:885   */\n      iszero\n      tag_70\n      jumpi\n        /* \"#utility.yul\":804:883   */\n      tag_71\n      tag_43\n      jump\t// in\n    tag_71:\n        /* \"#utility.yul\":766:885   */\n    tag_70:\n        /* \"#utility.yul\":924:925   */\n      0x00\n        /* \"#utility.yul\":949:1002   */\n      tag_72\n        /* \"#utility.yul\":994:1001   */\n      dup5\n        /* \"#utility.yul\":985:991   */\n      dup3\n        /* \"#utility.yul\":974:983   */\n      dup6\n        /* \"#utility.yul\":970:992   */\n      add\n        /* \"#utility.yul\":949:1002   */\n      tag_47\n      jump\t// in\n    tag_72:\n        /* \"#utility.yul\":939:1002   */\n      swap2\n      pop\n        /* \"#utility.yul\":895:1012   */\n      pop\n        /* \"#utility.yul\":690:1019   */\n      swap3\n      swap2\n      pop\n      pop\n      jump\t// out\n        /* \"#utility.yul\":1025:1151   */\n    tag_48:\n        /* \"#utility.yul\":1062:1069   */\n      0x00\n        /* \"#utility.yul\":1102:1144   */\n      0xffffffffffffffffffffffffffffffffffffffff\n        /* \"#utility.yul\":1095:1100   */\n      dup3\n        /* \"#utility.yul\":1091:1145   */\n      and\n        /* \"#utility.yul\":1080:1145   */\n      swap1\n      pop\n        /* \"#utility.yul\":1025:1151   */\n      swap2\n      swap1\n      pop\n      jump\t// out\n        /* \"#utility.yul\":1157:1253   */\n    tag_49:\n        /* \"#utility.yul\":1194:1201   */\n      0x00\n        /* \"#utility.yul\":1223:1247   */\n      tag_75\n        /* \"#utility.yul\":1241:1246   */\n      dup3\n        /* \"#utility.yul\":1223:1247   */\n      tag_48\n      jump\t// in\n    tag_75:\n        /* \"#utility.yul\":1212:1247   */\n      swap1\n      pop\n        /* \"#utility.yul\":1157:1253   */\n      swap2\n      swap1\n      pop\n      jump\t// out\n        /* \"#utility.yul\":1259:1377   */\n    tag_50:\n        /* \"#utility.yul\":1346:1370   */\n      tag_77\n        /* \"#utility.yul\":1364:1369   */\n      dup2\n        /* \"#utility.yul\":1346:1370   */\n      tag_49\n      jump\t// in\n    tag_77:\n        /* \"#utility.yul\":1341:1344   */\n      dup3\n        /* \"#utility.yul\":1334:1371   */\n      mstore\n        /* \"#utility.yul\":1259:1377   */\n      pop\n      pop\n      jump\t// out\n        /* \"#utility.yul\":1383:1501   */\n    tag_51:\n        /* \"#utility.yul\":1470:1494   */\n      tag_79\n        /* \"#utility.yul\":1488:1493   */\n      dup2\n        /* \"#utility.yul\":1470:1494   */\n      tag_45\n      jump\t// in\n    tag_79:\n        /* \"#utility.yul\":1465:1468   */\n      dup3\n        /* \"#utility.yul\":1458:1495   */\n      mstore\n        /* \"#utility.yul\":1383:1501   */\n      pop\n      pop\n      jump\t// out\n        /* \"#utility.yul\":1507:1839   */\n    tag_18:\n        /* \"#utility.yul\":1628:1632   */\n      0x00\n        /* \"#utility.yul\":1666:1668   */\n      0x40\n        /* \"#utility.yul\":1655:1664   */\n      dup3\n        /* \"#utility.yul\":1651:1669   */\n      add\n        /* \"#utility.yul\":1643:1669   */\n      swap1\n      pop\n        /* \"#utility.yul\":1679:1750   */\n      tag_81\n        /* \"#utility.yul\":1747:1748   */\n      0x00\n        /* \"#utility.yul\":1736:1745   */\n      dup4\n        /* \"#utility.yul\":1732:1749   */\n      add\n        /* \"#utility.yul\":1723:1729   */\n      dup6\n        /* \"#utility.yul\":1679:1750   */\n      tag_50\n      jump\t// in\n    tag_81:\n        /* \"#utility.yul\":1760:1832   */\n      tag_82\n        /* \"#utility.yul\":1828:1830   */\n      0x20\n        /* \"#utility.yul\":1817:1826   */\n      dup4\n        /* \"#utility.yul\":1813:1831   */\n      add\n        /* \"#utility.yul\":1804:1810   */\n      dup5\n        /* \"#utility.yul\":1760:1832   */\n      tag_51\n      jump\t// in\n    tag_82:\n        /* \"#utility.yul\":1507:1839   */\n      swap4\n      swap3\n      pop\n      pop\n      pop\n      jump\t// out\n        /* \"#utility.yul\":1845:1967   */\n    tag_52:\n        /* \"#utility.yul\":1918:1942   */\n      tag_84\n        /* \"#utility.yul\":1936:1941   */\n      dup2\n        /* \"#utility.yul\":1918:1942   */\n      tag_49\n      jump\t// in\n    tag_84:\n        /* \"#utility.yul\":1911:1916   */\n      dup2\n        /* \"#utility.yul\":1908:1943   */\n      eq\n        /* \"#utility.yul\":1898:1961   */\n      tag_85\n      jumpi\n        /* \"#utility.yul\":1957:1958   */\n      0x00\n        /* \"#utility.yul\":1954:1955   */\n      dup1\n        /* \"#utility.yul\":1947:1959   */\n      revert\n        /* \"#utility.yul\":1898:1961   */\n    tag_85:\n        /* \"#utility.yul\":1845:1967   */\n      pop\n      jump\t// out\n        /* \"#utility.yul\":1973:2112   */\n    tag_53:\n        /* \"#utility.yul\":2019:2024   */\n      0x00\n        /* \"#utility.yul\":2057:2063   */\n      dup2\n        /* \"#utility.yul\":2044:2064   */\n      calldataload\n        /* \"#utility.yul\":2035:2064   */\n      swap1\n      pop\n        /* \"#utility.yul\":2073:2106   */\n      tag_87\n        /* \"#utility.yul\":2100:2105   */\n      dup2\n        /* \"#utility.yul\":2073:2106   */\n      tag_52\n      jump\t// in\n    tag_87:\n        /* \"#utility.yul\":1973:2112   */\n      swap3\n      swap2\n      pop\n      pop\n      jump\t// out\n        /* \"#utility.yul\":2118:2447   */\n    tag_22:\n        /* \"#utility.yul\":2177:2183   */\n      0x00\n        /* \"#utility.yul\":2226:2228   */\n      0x20\n        /* \"#utility.yul\":2214:2223   */\n      dup3\n        /* \"#utility.yul\":2205:2212   */\n      dup5\n        /* \"#utility.yul\":2201:2224   */\n      sub\n        /* \"#utility.yul\":2197:2229   */\n      slt\n        /* \"#utility.yul\":2194:2313   */\n      iszero\n      tag_89\n      jumpi\n        /* \"#utility.yul\":2232:2311   */\n      tag_90\n      tag_43\n      jump\t// in\n    tag_90:\n        /* \"#utility.yul\":2194:2313   */\n    tag_89:\n        /* \"#utility.yul\":2352:2353   */\n      0x00\n        /* \"#utility.yul\":2377:2430   */\n      tag_91\n        /* \"#utility.yul\":2422:2429   */\n      dup5\n        /* \"#utility.yul\":2413:2419   */\n      dup3\n        /* \"#utility.yul\":2402:2411   */\n      dup6\n        /* \"#utility.yul\":2398:2420   */\n      add\n        /* \"#utility.yul\":2377:2430   */\n      tag_53\n      jump\t// in\n    tag_91:\n        /* \"#utility.yul\":2367:2430   */\n      swap2\n      pop\n        /* \"#utility.yul\":2323:2440   */\n      pop\n        /* \"#utility.yul\":2118:2447   */\n      swap3\n      swap2\n      pop\n      pop\n      jump\t// out\n        /* \"#utility.yul\":2453:2675   */\n    tag_25:\n        /* \"#utility.yul\":2546:2550   */\n      0x00\n        /* \"#utility.yul\":2584:2586   */\n      0x20\n        /* \"#utility.yul\":2573:2582   */\n      dup3\n        /* \"#utility.yul\":2569:2587   */\n      add\n        /* \"#utility.yul\":2561:2587   */\n      swap1\n      pop\n        /* \"#utility.yul\":2597:2668   */\n      tag_93\n        /* \"#utility.yul\":2665:2666   */\n      0x00\n        /* \"#utility.yul\":2654:2663   */\n      dup4\n        /* \"#utility.yul\":2650:2667   */\n      add\n        /* \"#utility.yul\":2641:2647   */\n      dup5\n        /* \"#utility.yul\":2597:2668   */\n      tag_51\n      jump\t// in\n    tag_93:\n        /* \"#utility.yul\":2453:2675   */\n      swap3\n      swap2\n      pop\n      pop\n      jump\t// out\n        /* \"#utility.yul\":2681:2850   */\n    tag_54:\n        /* \"#utility.yul\":2765:2776   */\n      0x00\n        /* \"#utility.yul\":2799:2805   */\n      dup3\n        /* \"#utility.yul\":2794:2797   */\n      dup3\n        /* \"#utility.yul\":2787:2806   */\n      mstore\n        /* \"#utility.yul\":2839:2843   */\n      0x20\n        /* \"#utility.yul\":2834:2837   */\n      dup3\n        /* \"#utility.yul\":2830:2844   */\n      add\n        /* \"#utility.yul\":2815:2844   */\n      swap1\n      pop\n        /* \"#utility.yul\":2681:2850   */\n      swap3\n      swap2\n      pop\n      pop\n      jump\t// out\n        /* \"#utility.yul\":2856:3024   */\n    tag_55:\n        /* \"#utility.yul\":2996:3016   */\n      0x4e65646f737461746f6b20737265647374760000000000000000000000000000\n        /* \"#utility.yul\":2992:2993   */\n      0x00\n        /* \"#utility.yul\":2984:2990   */\n      dup3\n        /* \"#utility.yul\":2980:2994   */\n      add\n        /* \"#utility.yul\":2973:3017   */\n      mstore\n        /* \"#utility.yul\":2856:3024   */\n      pop\n      jump\t// out\n        /* \"#utility.yul\":3030:3396   */\n    tag_56:\n        /* \"#utility.yul\":3172:3175   */\n      0x00\n        /* \"#utility.yul\":3193:3260   */\n      tag_97\n        /* \"#utility.yul\":3257:3259   */\n      0x12\n        /* \"#utility.yul\":3252:3255   */\n      dup4\n        /* \"#utility.yul\":3193:3260   */\n      tag_54\n      jump\t// in\n    tag_97:\n        /* \"#utility.yul\":3186:3260   */\n      swap2\n      pop\n        /* \"#utility.yul\":3269:3362   */\n      tag_98\n        /* \"#utility.yul\":3358:3361   */\n      dup3\n        /* \"#utility.yul\":3269:3362   */\n      tag_55\n      jump\t// in\n    tag_98:\n        /* \"#utility.yul\":3387:3389   */\n      0x20\n        /* \"#utility.yul\":3382:3385   */\n      dup3\n        /* \"#utility.yul\":3378:3390   */\n      add\n        /* \"#utility.yul\":3371:3390   */\n      swap1\n      pop\n        /* \"#utility.yul\":3030:3396   */\n      swap2\n      swap1\n      pop\n      jump\t// out\n        /* \"#utility.yul\":3402:3821   */\n    tag_32:\n        /* \"#utility.yul\":3568:3572   */\n      0x00\n        /* \"#utility.yul\":3606:3608   */\n      0x20\n        /* \"#utility.yul\":3595:3604   */\n      dup3\n        /* \"#utility.yul\":3591:3609   */\n      add\n        /* \"#utility.yul\":3583:3609   */\n      swap1\n      pop\n        /* \"#utility.yul\":3655:3664   */\n      dup2\n        /* \"#utility.yul\":3649:3653   */\n      dup2\n        /* \"#utility.yul\":3645:3665   */\n      sub\n        /* \"#utility.yul\":3641:3642   */\n      0x00\n        /* \"#utility.yul\":3630:3639   */\n      dup4\n        /* \"#utility.yul\":3626:3643   */\n      add\n        /* \"#utility.yul\":3619:3666   */\n      mstore\n        /* \"#utility.yul\":3683:3814   */\n      tag_100\n        /* \"#utility.yul\":3809:3813   */\n      dup2\n        /* \"#utility.yul\":3683:3814   */\n      tag_56\n      jump\t// in\n    tag_100:\n        /* \"#utility.yul\":3675:3814   */\n      swap1\n      pop\n        /* \"#utility.yul\":3402:3821   */\n      swap2\n      swap1\n      pop\n      jump\t// out\n        /* \"#utility.yul\":3827:4003   */\n    tag_57:\n        /* \"#utility.yul\":3967:3995   */\n      0x56766564697465207a6e616368656e696520626f6c7368652030000000000000\n        /* \"#utility.yul\":3963:3964   */\n      0x00\n        /* \"#utility.yul\":3955:3961   */\n      dup3\n        /* \"#utility.yul\":3951:3965   */\n      add\n        /* \"#utility.yul\":3944:3996   */\n      mstore\n        /* \"#utility.yul\":3827:4003   */\n      pop\n      jump\t// out\n        /* \"#utility.yul\":4009:4375   */\n    tag_58:\n        /* \"#utility.yul\":4151:4154   */\n      0x00\n        /* \"#utility.yul\":4172:4239   */\n      tag_103\n        /* \"#utility.yul\":4236:4238   */\n      0x1a\n        /* \"#utility.yul\":4231:4234   */\n      dup4\n        /* \"#utility.yul\":4172:4239   */\n      tag_54\n      jump\t// in\n    tag_103:\n        /* \"#utility.yul\":4165:4239   */\n      swap2\n      pop\n        /* \"#utility.yul\":4248:4341   */\n      tag_104\n        /* \"#utility.yul\":4337:4340   */\n      dup3\n        /* \"#utility.yul\":4248:4341   */\n      tag_57\n      jump\t// in\n    tag_104:\n        /* \"#utility.yul\":4366:4368   */\n      0x20\n        /* \"#utility.yul\":4361:4364   */\n      dup3\n        /* \"#utility.yul\":4357:4369   */\n      add\n        /* \"#utility.yul\":4350:4369   */\n      swap1\n      pop\n        /* \"#utility.yul\":4009:4375   */\n      swap2\n      swap1\n      pop\n      jump\t// out\n        /* \"#utility.yul\":4381:4800   */\n    tag_35:\n        /* \"#utility.yul\":4547:4551   */\n      0x00\n        /* \"#utility.yul\":4585:4587   */\n      0x20\n        /* \"#utility.yul\":4574:4583   */\n      dup3\n        /* \"#utility.yul\":4570:4588   */\n      add\n        /* \"#utility.yul\":4562:4588   */\n      swap1\n      pop\n        /* \"#utility.yul\":4634:4643   */\n      dup2\n        /* \"#utility.yul\":4628:4632   */\n      dup2\n        /* \"#utility.yul\":4624:4644   */\n      sub\n        /* \"#utility.yul\":4620:4621   */\n      0x00\n        /* \"#utility.yul\":4609:4618   */\n      dup4\n        /* \"#utility.yul\":4605:4622   */\n      add\n        /* \"#utility.yul\":4598:4645   */\n      mstore\n        /* \"#utility.yul\":4662:4793   */\n      tag_106\n        /* \"#utility.yul\":4788:4792   */\n      dup2\n        /* \"#utility.yul\":4662:4793   */\n      tag_58\n      jump\t// in\n    tag_106:\n        /* \"#utility.yul\":4654:4793   */\n      swap1\n      pop\n        /* \"#utility.yul\":4381:4800   */\n      swap2\n      swap1\n      pop\n      jump\t// out\n\n    auxdata: 0xa2646970667358221220a266d73ed68240d6651b1393be8706afabecedbff6969bdbf60050e5ff5a969b64736f6c63430008180033\n}\n",
				"bytecode": {
					"linkReferences": {},
					"object": "608060405234801561000f575f80fd5b5061052e8061001d5f395ff3fe60806040526004361061003e575f3560e01c8063055c26d014610042578063824df90f1461004c5780638d005b5714610074578063f8b2cb4f146100b1575b5f80fd5b61004a6100ed565b005b348015610057575f80fd5b50610072600480360381019061006d919061030a565b610161565b005b34801561007f575f80fd5b5061009a6004803603810190610095919061030a565b610266565b6040516100a8929190610383565b60405180910390f35b3480156100bc575f80fd5b506100d760048036038101906100d291906103d4565b6102b3565b6040516100e491906103ff565b60405180910390f35b7f21e5383a73a9e74de80357f79bd150f1c55b6c3f0af7e4332810a74c7ba1a5ae333460405161011e929190610383565b60405180910390a17fff3760390ab4b56f150db141740c4e201d0e412576dc7f1fa709a21e5483da613334604051610157929190610383565b60405180910390a1565b478111156101a4576040517f08c379a000000000000000000000000000000000000000000000000000000000815260040161019b90610472565b60405180910390fd5b5f81116101e6576040517f08c379a00000000000000000000000000000000000000000000000000000000081526004016101dd906104da565b60405180910390fd5b3373ffffffffffffffffffffffffffffffffffffffff166108fc8290811502906040515f60405180830381858888f19350505050158015610229573d5f803e3d5ffd5b507fccf14a3c8c8227692a09601a5aa3c39cc7b11053a5a7628cd6519e2d320bdf68338260405161025b929190610383565b60405180910390a150565b5f8181548110610274575f80fd5b905f5260205f2090600202015f91509050805f015f9054906101000a900473ffffffffffffffffffffffffffffffffffffffff16908060010154905082565b5f8173ffffffffffffffffffffffffffffffffffffffff16319050919050565b5f80fd5b5f819050919050565b6102e9816102d7565b81146102f3575f80fd5b50565b5f81359050610304816102e0565b92915050565b5f6020828403121561031f5761031e6102d3565b5b5f61032c848285016102f6565b91505092915050565b5f73ffffffffffffffffffffffffffffffffffffffff82169050919050565b5f61035e82610335565b9050919050565b61036e81610354565b82525050565b61037d816102d7565b82525050565b5f6040820190506103965f830185610365565b6103a36020830184610374565b9392505050565b6103b381610354565b81146103bd575f80fd5b50565b5f813590506103ce816103aa565b92915050565b5f602082840312156103e9576103e86102d3565b5b5f6103f6848285016103c0565b91505092915050565b5f6020820190506104125f830184610374565b92915050565b5f82825260208201905092915050565b7f4e65646f737461746f6b207372656473747600000000000000000000000000005f82015250565b5f61045c601283610418565b915061046782610428565b602082019050919050565b5f6020820190508181035f83015261048981610450565b9050919050565b7f56766564697465207a6e616368656e696520626f6c73686520300000000000005f82015250565b5f6104c4601a83610418565b91506104cf82610490565b602082019050919050565b5f6020820190508181035f8301526104f1816104b8565b905091905056fea2646970667358221220a266d73ed68240d6651b1393be8706afabecedbff6969bdbf60050e5ff5a969b64736f6c63430008180033",
					"opcodes": "PUSH1 0x80 PUSH1 0x40 MSTORE CALLVALUE DUP1 ISZERO PUSH2 0xF JUMPI PUSH0 DUP1 REVERT JUMPDEST POP PUSH2 0x52E DUP1 PUSH2 0x1D PUSH0 CODECOPY PUSH0 RETURN INVALID PUSH1 0x80 PUSH1 0x40 MSTORE PUSH1 0x4 CALLDATASIZE LT PUSH2 0x3E JUMPI PUSH0 CALLDATALOAD PUSH1 0xE0 SHR DUP1 PUSH4 0x55C26D0 EQ PUSH2 0x42 JUMPI DUP1 PUSH4 0x824DF90F EQ PUSH2 0x4C JUMPI DUP1 PUSH4 0x8D005B57 EQ PUSH2 0x74 JUMPI DUP1 PUSH4 0xF8B2CB4F EQ PUSH2 0xB1 JUMPI JUMPDEST PUSH0 DUP1 REVERT JUMPDEST PUSH2 0x4A PUSH2 0xED JUMP JUMPDEST STOP JUMPDEST CALLVALUE DUP1 ISZERO PUSH2 0x57 JUMPI PUSH0 DUP1 REVERT JUMPDEST POP PUSH2 0x72 PUSH1 0x4 DUP1 CALLDATASIZE SUB DUP2 ADD SWAP1 PUSH2 0x6D SWAP2 SWAP1 PUSH2 0x30A JUMP JUMPDEST PUSH2 0x161 JUMP JUMPDEST STOP JUMPDEST CALLVALUE DUP1 ISZERO PUSH2 0x7F JUMPI PUSH0 DUP1 REVERT JUMPDEST POP PUSH2 0x9A PUSH1 0x4 DUP1 CALLDATASIZE SUB DUP2 ADD SWAP1 PUSH2 0x95 SWAP2 SWAP1 PUSH2 0x30A JUMP JUMPDEST PUSH2 0x266 JUMP JUMPDEST PUSH1 0x40 MLOAD PUSH2 0xA8 SWAP3 SWAP2 SWAP1 PUSH2 0x383 JUMP JUMPDEST PUSH1 0x40 MLOAD DUP1 SWAP2 SUB SWAP1 RETURN JUMPDEST CALLVALUE DUP1 ISZERO PUSH2 0xBC JUMPI PUSH0 DUP1 REVERT JUMPDEST POP PUSH2 0xD7 PUSH1 0x4 DUP1 CALLDATASIZE SUB DUP2 ADD SWAP1 PUSH2 0xD2 SWAP2 SWAP1 PUSH2 0x3D4 JUMP JUMPDEST PUSH2 0x2B3 JUMP JUMPDEST PUSH1 0x40 MLOAD PUSH2 0xE4 SWAP2 SWAP1 PUSH2 0x3FF JUMP JUMPDEST PUSH1 0x40 MLOAD DUP1 SWAP2 SUB SWAP1 RETURN JUMPDEST PUSH32 0x21E5383A73A9E74DE80357F79BD150F1C55B6C3F0AF7E4332810A74C7BA1A5AE CALLER CALLVALUE PUSH1 0x40 MLOAD PUSH2 0x11E SWAP3 SWAP2 SWAP1 PUSH2 0x383 JUMP JUMPDEST PUSH1 0x40 MLOAD DUP1 SWAP2 SUB SWAP1 LOG1 PUSH32 0xFF3760390AB4B56F150DB141740C4E201D0E412576DC7F1FA709A21E5483DA61 CALLER CALLVALUE PUSH1 0x40 MLOAD PUSH2 0x157 SWAP3 SWAP2 SWAP1 PUSH2 0x383 JUMP JUMPDEST PUSH1 0x40 MLOAD DUP1 SWAP2 SUB SWAP1 LOG1 JUMP JUMPDEST SELFBALANCE DUP2 GT ISZERO PUSH2 0x1A4 JUMPI PUSH1 0x40 MLOAD PUSH32 0x8C379A000000000000000000000000000000000000000000000000000000000 DUP2 MSTORE PUSH1 0x4 ADD PUSH2 0x19B SWAP1 PUSH2 0x472 JUMP JUMPDEST PUSH1 0x40 MLOAD DUP1 SWAP2 SUB SWAP1 REVERT JUMPDEST PUSH0 DUP2 GT PUSH2 0x1E6 JUMPI PUSH1 0x40 MLOAD PUSH32 0x8C379A000000000000000000000000000000000000000000000000000000000 DUP2 MSTORE PUSH1 0x4 ADD PUSH2 0x1DD SWAP1 PUSH2 0x4DA JUMP JUMPDEST PUSH1 0x40 MLOAD DUP1 SWAP2 SUB SWAP1 REVERT JUMPDEST CALLER PUSH20 0xFFFFFFFFFFFFFFFFFFFFFFFFFFFFFFFFFFFFFFFF AND PUSH2 0x8FC DUP3 SWAP1 DUP2 ISZERO MUL SWAP1 PUSH1 0x40 MLOAD PUSH0 PUSH1 0x40 MLOAD DUP1 DUP4 SUB DUP2 DUP6 DUP9 DUP9 CALL SWAP4 POP POP POP POP ISZERO DUP1 ISZERO PUSH2 0x229 JUMPI RETURNDATASIZE PUSH0 DUP1 RETURNDATACOPY RETURNDATASIZE PUSH0 REVERT JUMPDEST POP PUSH32 0xCCF14A3C8C8227692A09601A5AA3C39CC7B11053A5A7628CD6519E2D320BDF68 CALLER DUP3 PUSH1 0x40 MLOAD PUSH2 0x25B SWAP3 SWAP2 SWAP1 PUSH2 0x383 JUMP JUMPDEST PUSH1 0x40 MLOAD DUP1 SWAP2 SUB SWAP1 LOG1 POP JUMP JUMPDEST PUSH0 DUP2 DUP2 SLOAD DUP2 LT PUSH2 0x274 JUMPI PUSH0 DUP1 REVERT JUMPDEST SWAP1 PUSH0 MSTORE PUSH1 0x20 PUSH0 KECCAK256 SWAP1 PUSH1 0x2 MUL ADD PUSH0 SWAP2 POP SWAP1 POP DUP1 PUSH0 ADD PUSH0 SWAP1 SLOAD SWAP1 PUSH2 0x100 EXP SWAP1 DIV PUSH20 0xFFFFFFFFFFFFFFFFFFFFFFFFFFFFFFFFFFFFFFFF AND SWAP1 DUP1 PUSH1 0x1 ADD SLOAD SWAP1 POP DUP3 JUMP JUMPDEST PUSH0 DUP2 PUSH20 0xFFFFFFFFFFFFFFFFFFFFFFFFFFFFFFFFFFFFFFFF AND BALANCE SWAP1 POP SWAP2 SWAP1 POP JUMP JUMPDEST PUSH0 DUP1 REVERT JUMPDEST PUSH0 DUP2 SWAP1 POP SWAP2 SWAP1 POP JUMP JUMPDEST PUSH2 0x2E9 DUP2 PUSH2 0x2D7 JUMP JUMPDEST DUP2 EQ PUSH2 0x2F3 JUMPI PUSH0 DUP1 REVERT JUMPDEST POP JUMP JUMPDEST PUSH0 DUP2 CALLDATALOAD SWAP1 POP PUSH2 0x304 DUP2 PUSH2 0x2E0 JUMP JUMPDEST SWAP3 SWAP2 POP POP JUMP JUMPDEST PUSH0 PUSH1 0x20 DUP3 DUP5 SUB SLT ISZERO PUSH2 0x31F JUMPI PUSH2 0x31E PUSH2 0x2D3 JUMP JUMPDEST JUMPDEST PUSH0 PUSH2 0x32C DUP5 DUP3 DUP6 ADD PUSH2 0x2F6 JUMP JUMPDEST SWAP2 POP POP SWAP3 SWAP2 POP POP JUMP JUMPDEST PUSH0 PUSH20 0xFFFFFFFFFFFFFFFFFFFFFFFFFFFFFFFFFFFFFFFF DUP3 AND SWAP1 POP SWAP2 SWAP1 POP JUMP JUMPDEST PUSH0 PUSH2 0x35E DUP3 PUSH2 0x335 JUMP JUMPDEST SWAP1 POP SWAP2 SWAP1 POP JUMP JUMPDEST PUSH2 0x36E DUP2 PUSH2 0x354 JUMP JUMPDEST DUP3 MSTORE POP POP JUMP JUMPDEST PUSH2 0x37D DUP2 PUSH2 0x2D7 JUMP JUMPDEST DUP3 MSTORE POP POP JUMP JUMPDEST PUSH0 PUSH1 0x40 DUP3 ADD SWAP1 POP PUSH2 0x396 PUSH0 DUP4 ADD DUP6 PUSH2 0x365 JUMP JUMPDEST PUSH2 0x3A3 PUSH1 0x20 DUP4 ADD DUP5 PUSH2 0x374 JUMP JUMPDEST SWAP4 SWAP3 POP POP POP JUMP JUMPDEST PUSH2 0x3B3 DUP2 PUSH2 0x354 JUMP JUMPDEST DUP2 EQ PUSH2 0x3BD JUMPI PUSH0 DUP1 REVERT JUMPDEST POP JUMP JUMPDEST PUSH0 DUP2 CALLDATALOAD SWAP1 POP PUSH2 0x3CE DUP2 PUSH2 0x3AA JUMP JUMPDEST SWAP3 SWAP2 POP POP JUMP JUMPDEST PUSH0 PUSH1 0x20 DUP3 DUP5 SUB SLT ISZERO PUSH2 0x3E9 JUMPI PUSH2 0x3E8 PUSH2 0x2D3 JUMP JUMPDEST JUMPDEST PUSH0 PUSH2 0x3F6 DUP5 DUP3 DUP6 ADD PUSH2 0x3C0 JUMP JUMPDEST SWAP2 POP POP SWAP3 SWAP2 POP POP JUMP JUMPDEST PUSH0 PUSH1 0x20 DUP3 ADD SWAP1 POP PUSH2 0x412 PUSH0 DUP4 ADD DUP5 PUSH2 0x374 JUMP JUMPDEST SWAP3 SWAP2 POP POP JUMP JUMPDEST PUSH0 DUP3 DUP3 MSTORE PUSH1 0x20 DUP3 ADD SWAP1 POP SWAP3 SWAP2 POP POP JUMP JUMPDEST PUSH32 0x4E65646F737461746F6B20737265647374760000000000000000000000000000 PUSH0 DUP3 ADD MSTORE POP JUMP JUMPDEST PUSH0 PUSH2 0x45C PUSH1 0x12 DUP4 PUSH2 0x418 JUMP JUMPDEST SWAP2 POP PUSH2 0x467 DUP3 PUSH2 0x428 JUMP JUMPDEST PUSH1 0x20 DUP3 ADD SWAP1 POP SWAP2 SWAP1 POP JUMP JUMPDEST PUSH0 PUSH1 0x20 DUP3 ADD SWAP1 POP DUP2 DUP2 SUB PUSH0 DUP4 ADD MSTORE PUSH2 0x489 DUP2 PUSH2 0x450 JUMP JUMPDEST SWAP1 POP SWAP2 SWAP1 POP JUMP JUMPDEST PUSH32 0x56766564697465207A6E616368656E696520626F6C7368652030000000000000 PUSH0 DUP3 ADD MSTORE POP JUMP JUMPDEST PUSH0 PUSH2 0x4C4 PUSH1 0x1A DUP4 PUSH2 0x418 JUMP JUMPDEST SWAP2 POP PUSH2 0x4CF DUP3 PUSH2 0x490 JUMP JUMPDEST PUSH1 0x20 DUP3 ADD SWAP1 POP SWAP2 SWAP1 POP JUMP JUMPDEST PUSH0 PUSH1 0x20 DUP3 ADD SWAP1 POP DUP2 DUP2 SUB PUSH0 DUP4 ADD MSTORE PUSH2 0x4F1 DUP2 PUSH2 0x4B8 JUMP JUMPDEST SWAP1 POP SWAP2 SWAP1 POP JUMP INVALID LOG2 PUSH5 0x6970667358 0x22 SLT KECCAK256 LOG2 PUSH7 0xD73ED68240D665 SHL SGT SWAP4 0xBE DUP8 MOD 0xAF 0xAB 0xEC 0xED 0xBF 0xF6 SWAP7 SWAP12 0xDB 0xF6 STOP POP 0xE5 SELFDESTRUCT GAS SWAP7 SWAP12 PUSH5 0x736F6C6343 STOP ADDMOD XOR STOP CALLER "
				},
				"gasEstimates": {
					"creation": {
						"codeDepositCost": "265200",
						"executionCost": "304",
						"totalCost": "265504"
					},
					"external": {
						"Nachislenie_Money()": "infinite",
						"Otpravit(uint256)": "infinite",
						"chels(uint256)": "infinite",
						"getBalance(address)": "3291"
					}
				},
				"methodIdentifiers": {
					"Nachislenie_Money()": "055c26d0",
					"Otpravit(uint256)": "824df90f",
					"chels(uint256)": "8d005b57",
					"getBalance(address)": "f8b2cb4f"
				}
			},
			"storageLayout": {
				"storage": [
					{
						"astId": 10,
						"contract": "contracts/1_Storage.sol:Money",
						"label": "chels",
						"offset": 0,
						"slot": "0",
						"type": "t_array(t_struct(Chelik)6_storage)dyn_storage"
					}
				],
				"types": {
					"t_address": {
						"encoding": "inplace",
						"label": "address",
						"numberOfBytes": "20"
					},
					"t_array(t_struct(Chelik)6_storage)dyn_storage": {
						"base": "t_struct(Chelik)6_storage",
						"encoding": "dynamic_array",
						"label": "struct Money.Chelik[]",
						"numberOfBytes": "32"
					},
					"t_struct(Chelik)6_storage": {
						"encoding": "inplace",
						"label": "struct Money.Chelik",
						"members": [
							{
								"astId": 3,
								"contract": "contracts/1_Storage.sol:Money",
								"label": "userAddress",
								"offset": 0,
								"slot": "0",
								"type": "t_address"
							},
							{
								"astId": 5,
								"contract": "contracts/1_Storage.sol:Money",
								"label": "balance",
								"offset": 0,
								"slot": "1",
								"type": "t_uint256"
							}
						],
						"numberOfBytes": "64"
					},
					"t_uint256": {
						"encoding": "inplace",
						"label": "uint256",
						"numberOfBytes": "32"
					}
				}
			},
			"userdoc": {
				"kind": "user",
				"methods": {},
				"version": 1
			}
		}
	}
}