{
	"data": {
		"bytecode": {
			"linkReferences": {},
			"object": "608060405234801561000f575f80fd5b506104ae8061001d5f395ff3fe60806040526004361061003e575f3560e01c8063082f6b1f1461004257806312065fe01461004c578063824df90f146100765780638d005b571461009e575b5f80fd5b61004a6100db565b005b348015610057575f80fd5b5061006061014f565b60405161006d91906102c0565b60405180910390f35b348015610081575f80fd5b5061009c60048036038101906100979190610307565b610156565b005b3480156100a9575f80fd5b506100c460048036038101906100bf9190610307565b61025b565b6040516100d2929190610371565b60405180910390f35b7f21e5383a73a9e74de80357f79bd150f1c55b6c3f0af7e4332810a74c7ba1a5ae333460405161010c929190610371565b60405180910390a17fff3760390ab4b56f150db141740c4e201d0e412576dc7f1fa709a21e5483da613334604051610145929190610371565b60405180910390a1565b5f47905090565b47811115610199576040517f08c379a0000000000000000000000000000000000000000000000000000000008152600401610190906103f2565b60405180910390fd5b5f81116101db576040517f08c379a00000000000000000000000000000000000000000000000000000000081526004016101d29061045a565b60405180910390fd5b3373ffffffffffffffffffffffffffffffffffffffff166108fc8290811502906040515f60405180830381858888f1935050505015801561021e573d5f803e3d5ffd5b507fccf14a3c8c8227692a09601a5aa3c39cc7b11053a5a7628cd6519e2d320bdf683382604051610250929190610371565b60405180910390a150565b5f8181548110610269575f80fd5b905f5260205f2090600202015f91509050805f015f9054906101000a900473ffffffffffffffffffffffffffffffffffffffff16908060010154905082565b5f819050919050565b6102ba816102a8565b82525050565b5f6020820190506102d35f8301846102b1565b92915050565b5f80fd5b6102e6816102a8565b81146102f0575f80fd5b50565b5f81359050610301816102dd565b92915050565b5f6020828403121561031c5761031b6102d9565b5b5f610329848285016102f3565b91505092915050565b5f73ffffffffffffffffffffffffffffffffffffffff82169050919050565b5f61035b82610332565b9050919050565b61036b81610351565b82525050565b5f6040820190506103845f830185610362565b61039160208301846102b1565b9392505050565b5f82825260208201905092915050565b7f4e65646f737461746f6b207372656473747600000000000000000000000000005f82015250565b5f6103dc601283610398565b91506103e7826103a8565b602082019050919050565b5f6020820190508181035f830152610409816103d0565b9050919050565b7f56766564697465207a6e616368656e696520626f6c73686520300000000000005f82015250565b5f610444601a83610398565b915061044f82610410565b602082019050919050565b5f6020820190508181035f83015261047181610438565b905091905056fea2646970667358221220553443aa5f635e28422e47e7b3daa6b72c8b0eb8eee5a643b13e1f8d34593fee64736f6c63430008180033",
			"opcodes": "PUSH1 0x80 PUSH1 0x40 MSTORE CALLVALUE DUP1 ISZERO PUSH2 0xF JUMPI PUSH0 DUP1 REVERT JUMPDEST POP PUSH2 0x4AE DUP1 PUSH2 0x1D PUSH0 CODECOPY PUSH0 RETURN INVALID PUSH1 0x80 PUSH1 0x40 MSTORE PUSH1 0x4 CALLDATASIZE LT PUSH2 0x3E JUMPI PUSH0 CALLDATALOAD PUSH1 0xE0 SHR DUP1 PUSH4 0x82F6B1F EQ PUSH2 0x42 JUMPI DUP1 PUSH4 0x12065FE0 EQ PUSH2 0x4C JUMPI DUP1 PUSH4 0x824DF90F EQ PUSH2 0x76 JUMPI DUP1 PUSH4 0x8D005B57 EQ PUSH2 0x9E JUMPI JUMPDEST PUSH0 DUP1 REVERT JUMPDEST PUSH2 0x4A PUSH2 0xDB JUMP JUMPDEST STOP JUMPDEST CALLVALUE DUP1 ISZERO PUSH2 0x57 JUMPI PUSH0 DUP1 REVERT JUMPDEST POP PUSH2 0x60 PUSH2 0x14F JUMP JUMPDEST PUSH1 0x40 MLOAD PUSH2 0x6D SWAP2 SWAP1 PUSH2 0x2C0 JUMP JUMPDEST PUSH1 0x40 MLOAD DUP1 SWAP2 SUB SWAP1 RETURN JUMPDEST CALLVALUE DUP1 ISZERO PUSH2 0x81 JUMPI PUSH0 DUP1 REVERT JUMPDEST POP PUSH2 0x9C PUSH1 0x4 DUP1 CALLDATASIZE SUB DUP2 ADD SWAP1 PUSH2 0x97 SWAP2 SWAP1 PUSH2 0x307 JUMP JUMPDEST PUSH2 0x156 JUMP JUMPDEST STOP JUMPDEST CALLVALUE DUP1 ISZERO PUSH2 0xA9 JUMPI PUSH0 DUP1 REVERT JUMPDEST POP PUSH2 0xC4 PUSH1 0x4 DUP1 CALLDATASIZE SUB DUP2 ADD SWAP1 PUSH2 0xBF SWAP2 SWAP1 PUSH2 0x307 JUMP JUMPDEST PUSH2 0x25B JUMP JUMPDEST PUSH1 0x40 MLOAD PUSH2 0xD2 SWAP3 SWAP2 SWAP1 PUSH2 0x371 JUMP JUMPDEST PUSH1 0x40 MLOAD DUP1 SWAP2 SUB SWAP1 RETURN JUMPDEST PUSH32 0x21E5383A73A9E74DE80357F79BD150F1C55B6C3F0AF7E4332810A74C7BA1A5AE CALLER CALLVALUE PUSH1 0x40 MLOAD PUSH2 0x10C SWAP3 SWAP2 SWAP1 PUSH2 0x371 JUMP JUMPDEST PUSH1 0x40 MLOAD DUP1 SWAP2 SUB SWAP1 LOG1 PUSH32 0xFF3760390AB4B56F150DB141740C4E201D0E412576DC7F1FA709A21E5483DA61 CALLER CALLVALUE PUSH1 0x40 MLOAD PUSH2 0x145 SWAP3 SWAP2 SWAP1 PUSH2 0x371 JUMP JUMPDEST PUSH1 0x40 MLOAD DUP1 SWAP2 SUB SWAP1 LOG1 JUMP JUMPDEST PUSH0 SELFBALANCE SWAP1 POP SWAP1 JUMP JUMPDEST SELFBALANCE DUP2 GT ISZERO PUSH2 0x199 JUMPI PUSH1 0x40 MLOAD PUSH32 0x8C379A000000000000000000000000000000000000000000000000000000000 DUP2 MSTORE PUSH1 0x4 ADD PUSH2 0x190 SWAP1 PUSH2 0x3F2 JUMP JUMPDEST PUSH1 0x40 MLOAD DUP1 SWAP2 SUB SWAP1 REVERT JUMPDEST PUSH0 DUP2 GT PUSH2 0x1DB JUMPI PUSH1 0x40 MLOAD PUSH32 0x8C379A000000000000000000000000000000000000000000000000000000000 DUP2 MSTORE PUSH1 0x4 ADD PUSH2 0x1D2 SWAP1 PUSH2 0x45A JUMP JUMPDEST PUSH1 0x40 MLOAD DUP1 SWAP2 SUB SWAP1 REVERT JUMPDEST CALLER PUSH20 0xFFFFFFFFFFFFFFFFFFFFFFFFFFFFFFFFFFFFFFFF AND PUSH2 0x8FC DUP3 SWAP1 DUP2 ISZERO MUL SWAP1 PUSH1 0x40 MLOAD PUSH0 PUSH1 0x40 MLOAD DUP1 DUP4 SUB DUP2 DUP6 DUP9 DUP9 CALL SWAP4 POP POP POP POP ISZERO DUP1 ISZERO PUSH2 0x21E JUMPI RETURNDATASIZE PUSH0 DUP1 RETURNDATACOPY RETURNDATASIZE PUSH0 REVERT JUMPDEST POP PUSH32 0xCCF14A3C8C8227692A09601A5AA3C39CC7B11053A5A7628CD6519E2D320BDF68 CALLER DUP3 PUSH1 0x40 MLOAD PUSH2 0x250 SWAP3 SWAP2 SWAP1 PUSH2 0x371 JUMP JUMPDEST PUSH1 0x40 MLOAD DUP1 SWAP2 SUB SWAP1 LOG1 POP JUMP JUMPDEST PUSH0 DUP2 DUP2 SLOAD DUP2 LT PUSH2 0x269 JUMPI PUSH0 DUP1 REVERT JUMPDEST SWAP1 PUSH0 MSTORE PUSH1 0x20 PUSH0 KECCAK256 SWAP1 PUSH1 0x2 MUL ADD PUSH0 SWAP2 POP SWAP1 POP DUP1 PUSH0 ADD PUSH0 SWAP1 SLOAD SWAP1 PUSH2 0x100 EXP SWAP1 DIV PUSH20 0xFFFFFFFFFFFFFFFFFFFFFFFFFFFFFFFFFFFFFFFF AND SWAP1 DUP1 PUSH1 0x1 ADD SLOAD SWAP1 POP DUP3 JUMP JUMPDEST PUSH0 DUP2 SWAP1 POP SWAP2 SWAP1 POP JUMP JUMPDEST PUSH2 0x2BA DUP2 PUSH2 0x2A8 JUMP JUMPDEST DUP3 MSTORE POP POP JUMP JUMPDEST PUSH0 PUSH1 0x20 DUP3 ADD SWAP1 POP PUSH2 0x2D3 PUSH0 DUP4 ADD DUP5 PUSH2 0x2B1 JUMP JUMPDEST SWAP3 SWAP2 POP POP JUMP JUMPDEST PUSH0 DUP1 REVERT JUMPDEST PUSH2 0x2E6 DUP2 PUSH2 0x2A8 JUMP JUMPDEST DUP2 EQ PUSH2 0x2F0 JUMPI PUSH0 DUP1 REVERT JUMPDEST POP JUMP JUMPDEST PUSH0 DUP2 CALLDATALOAD SWAP1 POP PUSH2 0x301 DUP2 PUSH2 0x2DD JUMP JUMPDEST SWAP3 SWAP2 POP POP JUMP JUMPDEST PUSH0 PUSH1 0x20 DUP3 DUP5 SUB SLT ISZERO PUSH2 0x31C JUMPI PUSH2 0x31B PUSH2 0x2D9 JUMP JUMPDEST JUMPDEST PUSH0 PUSH2 0x329 DUP5 DUP3 DUP6 ADD PUSH2 0x2F3 JUMP JUMPDEST SWAP2 POP POP SWAP3 SWAP2 POP POP JUMP JUMPDEST PUSH0 PUSH20 0xFFFFFFFFFFFFFFFFFFFFFFFFFFFFFFFFFFFFFFFF DUP3 AND SWAP1 POP SWAP2 SWAP1 POP JUMP JUMPDEST PUSH0 PUSH2 0x35B DUP3 PUSH2 0x332 JUMP JUMPDEST SWAP1 POP SWAP2 SWAP1 POP JUMP JUMPDEST PUSH2 0x36B DUP2 PUSH2 0x351 JUMP JUMPDEST DUP3 MSTORE POP POP JUMP JUMPDEST PUSH0 PUSH1 0x40 DUP3 ADD SWAP1 POP PUSH2 0x384 PUSH0 DUP4 ADD DUP6 PUSH2 0x362 JUMP JUMPDEST PUSH2 0x391 PUSH1 0x20 DUP4 ADD DUP5 PUSH2 0x2B1 JUMP JUMPDEST SWAP4 SWAP3 POP POP POP JUMP JUMPDEST PUSH0 DUP3 DUP3 MSTORE PUSH1 0x20 DUP3 ADD SWAP1 POP SWAP3 SWAP2 POP POP JUMP JUMPDEST PUSH32 0x4E65646F737461746F6B20737265647374760000000000000000000000000000 PUSH0 DUP3 ADD MSTORE POP JUMP JUMPDEST PUSH0 PUSH2 0x3DC PUSH1 0x12 DUP4 PUSH2 0x398 JUMP JUMPDEST SWAP2 POP PUSH2 0x3E7 DUP3 PUSH2 0x3A8 JUMP JUMPDEST PUSH1 0x20 DUP3 ADD SWAP1 POP SWAP2 SWAP1 POP JUMP JUMPDEST PUSH0 PUSH1 0x20 DUP3 ADD SWAP1 POP DUP2 DUP2 SUB PUSH0 DUP4 ADD MSTORE PUSH2 0x409 DUP2 PUSH2 0x3D0 JUMP JUMPDEST SWAP1 POP SWAP2 SWAP1 POP JUMP JUMPDEST PUSH32 0x56766564697465207A6E616368656E696520626F6C7368652030000000000000 PUSH0 DUP3 ADD MSTORE POP JUMP JUMPDEST PUSH0 PUSH2 0x444 PUSH1 0x1A DUP4 PUSH2 0x398 JUMP JUMPDEST SWAP2 POP PUSH2 0x44F DUP3 PUSH2 0x410 JUMP JUMPDEST PUSH1 0x20 DUP3 ADD SWAP1 POP SWAP2 SWAP1 POP JUMP JUMPDEST PUSH0 PUSH1 0x20 DUP3 ADD SWAP1 POP DUP2 DUP2 SUB PUSH0 DUP4 ADD MSTORE PUSH2 0x471 DUP2 PUSH2 0x438 JUMP JUMPDEST SWAP1 POP SWAP2 SWAP1 POP JUMP INVALID LOG2 PUSH5 0x6970667358 0x22 SLT KECCAK256 SSTORE CALLVALUE NUMBER 0xAA PUSH0 PUSH4 0x5E28422E SELFBALANCE 0xE7 0xB3 0xDA 0xA6 0xB7 0x2C DUP12 0xE 0xB8 0xEE 0xE5 0xA6 NUMBER 0xB1 RETURNDATACOPY 0x1F DUP14 CALLVALUE MSIZE EXTCODEHASH 0xEE PUSH5 0x736F6C6343 STOP ADDMOD XOR STOP CALLER "
		},
		"gasEstimates": {
			"creation": {
				"codeDepositCost": "239600",
				"executionCost": "279",
				"totalCost": "239879"
			},
			"external": {
				"BalanceAdd()": "infinite",
				"Otpravit(uint256)": "infinite",
				"chels(uint256)": "infinite",
				"getBalance()": "334"
			}
		},
		"methodIdentifiers": {
			"BalanceAdd()": "082f6b1f",
			"Otpravit(uint256)": "824df90f",
			"chels(uint256)": "8d005b57",
			"getBalance()": "12065fe0"
		}
	},
	"abi": [
		{
			"anonymous": false,
			"inputs": [
				{
					"indexed": false,
					"internalType": "address",
					"name": "_user",
					"type": "address"
				},
				{
					"indexed": false,
					"internalType": "uint256",
					"name": "_amount",
					"type": "uint256"
				}
			],
			"name": "addBalance",
			"type": "event"
		},
		{
			"anonymous": false,
			"inputs": [
				{
					"indexed": false,
					"internalType": "address",
					"name": "_to",
					"type": "address"
				},
				{
					"indexed": false,
					"internalType": "uint256",
					"name": "_amount",
					"type": "uint256"
				}
			],
			"name": "op",
			"type": "event"
		},
		{
			"anonymous": false,
			"inputs": [
				{
					"indexed": false,
					"internalType": "address",
					"name": "_from",
					"type": "address"
				},
				{
					"indexed": false,
					"internalType": "uint256",
					"name": "_amount",
					"type": "uint256"
				}
			],
			"name": "paid",
			"type": "event"
		},
		{
			"anonymous": false,
			"inputs": [
				{
					"indexed": false,
					"internalType": "address",
					"name": "_from",
					"type": "address"
				},
				{
					"indexed": false,
					"internalType": "uint256",
					"name": "_amount",
					"type": "uint256"
				}
			],
			"name": "proverka",
			"type": "event"
		},
		{
			"inputs": [],
			"name": "BalanceAdd",
			"outputs": [],
			"stateMutability": "payable",
			"type": "function"
		},
		{
			"inputs": [
				{
					"internalType": "uint256",
					"name": "_amount",
					"type": "uint256"
				}
			],
			"name": "Otpravit",
			"outputs": [],
			"stateMutability": "nonpayable",
			"type": "function"
		},
		{
			"inputs": [
				{
					"internalType": "uint256",
					"name": "",
					"type": "uint256"
				}
			],
			"name": "chels",
			"outputs": [
				{
					"internalType": "address",
					"name": "userAddress",
					"type": "address"
				},
				{
					"internalType": "uint256",
					"name": "balance",
					"type": "uint256"
				}
			],
			"stateMutability": "view",
			"type": "function"
		},
		{
			"inputs": [],
			"name": "getBalance",
			"outputs": [
				{
					"internalType": "uint256",
					"name": "",
					"type": "uint256"
				}
			],
			"stateMutability": "view",
			"type": "function"
		}
	]
}